:100000000EC028C027C026C025C024C023C022C0DF
:1000100021C020C01FC01EC01DC01CC01BC0112499
:100020001FBECFE5D2E0DEBFCDBF10E0A0E6B0E05E
:10003000EAE5F1E002C005900D92A036B107D9F7CC
:1000400010E0A0E6B0E001C01D92A036B107E1F7D4
:1000500028D081C0D5CF806287B986E886B9369A24
:100060003699FECF85B1089598E087FF02C0C09A07
:1000700001C0C098C29AC298880F9150B1F70895F4
:10008000CF93DF930F92CDB7DEB7C1988F5E6983B0
:10009000EBDF6981862FE8DFC19A0F90DF91CF9166
:1000A0000895B89ABA9AB99AC298CCEEDFEF83E075
:1000B000D2DF90E062E170E015D080509940BE013F
:1000C00023D0615881E0DCDF82E0C5DF90E061E1B0
:1000D00070E008D080589840BE0116D0655880E086
:1000E000CFDFE5CF5527002480FF02C0060E571F43
:1000F000660F771F6115710521F09695879500971A
:1001000099F7952F802D089597FB092E07260AD081
:1001100077FD04D00CD006D000201AF470956195BC
:100120007F4F0895F6F7909581959F4F0895AA1BEC
:10013000BB1B51E107C0AA1FBB1FA617B70710F0D2
:10014000A61BB70B881F991F5A95A9F78095909504
:0A015000BC01CD010895F894FFCF23
:00000001FF
